{
  "contractName": "BorrowandUse",
  "abi": [
    {
      "inputs": [
        {
          "internalType": "address",
          "name": "tokenAddress",
          "type": "address"
        }
      ],
      "stateMutability": "nonpayable",
      "type": "constructor"
    },
    {
      "anonymous": false,
      "inputs": [
        {
          "indexed": false,
          "internalType": "address",
          "name": "_to",
          "type": "address"
        },
        {
          "indexed": false,
          "internalType": "uint256",
          "name": "_value",
          "type": "uint256"
        }
      ],
      "name": "AuthorizedTransfer",
      "type": "event"
    },
    {
      "anonymous": false,
      "inputs": [
        {
          "indexed": true,
          "internalType": "address",
          "name": "_by",
          "type": "address"
        },
        {
          "indexed": false,
          "internalType": "uint256",
          "name": "_amount",
          "type": "uint256"
        },
        {
          "indexed": false,
          "internalType": "uint256",
          "name": "_time",
          "type": "uint256"
        }
      ],
      "name": "BorrowEth",
      "type": "event"
    },
    {
      "anonymous": false,
      "inputs": [
        {
          "indexed": true,
          "internalType": "address",
          "name": "_by",
          "type": "address"
        },
        {
          "indexed": false,
          "internalType": "uint256",
          "name": "_amount",
          "type": "uint256"
        },
        {
          "indexed": false,
          "internalType": "uint256",
          "name": "_time",
          "type": "uint256"
        }
      ],
      "name": "BorrowToken",
      "type": "event"
    },
    {
      "anonymous": false,
      "inputs": [
        {
          "indexed": true,
          "internalType": "address",
          "name": "_by",
          "type": "address"
        },
        {
          "indexed": false,
          "internalType": "uint256",
          "name": "_amount",
          "type": "uint256"
        },
        {
          "indexed": false,
          "internalType": "uint256",
          "name": "_time",
          "type": "uint256"
        }
      ],
      "name": "ReturnBorrowEth",
      "type": "event"
    },
    {
      "anonymous": false,
      "inputs": [
        {
          "indexed": true,
          "internalType": "address",
          "name": "_by",
          "type": "address"
        },
        {
          "indexed": false,
          "internalType": "uint256",
          "name": "_amount",
          "type": "uint256"
        },
        {
          "indexed": false,
          "internalType": "uint256",
          "name": "_time",
          "type": "uint256"
        }
      ],
      "name": "ReturnBorrowToken",
      "type": "event"
    },
    {
      "inputs": [],
      "name": "ETHBalanceChecker",
      "outputs": [
        {
          "internalType": "uint256",
          "name": "",
          "type": "uint256"
        }
      ],
      "stateMutability": "view",
      "type": "function",
      "constant": true
    },
    {
      "inputs": [],
      "name": "TokenBalance",
      "outputs": [
        {
          "internalType": "uint256",
          "name": "",
          "type": "uint256"
        }
      ],
      "stateMutability": "view",
      "type": "function",
      "constant": true
    },
    {
      "inputs": [],
      "name": "RecieveETH",
      "outputs": [
        {
          "internalType": "bool",
          "name": "success",
          "type": "bool"
        }
      ],
      "stateMutability": "payable",
      "type": "function",
      "payable": true
    },
    {
      "inputs": [
        {
          "internalType": "uint256",
          "name": "_value",
          "type": "uint256"
        }
      ],
      "name": "BorrowETH",
      "outputs": [
        {
          "internalType": "bool",
          "name": "success",
          "type": "bool"
        }
      ],
      "stateMutability": "nonpayable",
      "type": "function"
    },
    {
      "inputs": [],
      "name": "CheckMaxBorrowTokens",
      "outputs": [
        {
          "internalType": "uint256",
          "name": "",
          "type": "uint256"
        }
      ],
      "stateMutability": "view",
      "type": "function",
      "constant": true
    },
    {
      "inputs": [],
      "name": "CheckMaxBorrowETH",
      "outputs": [
        {
          "internalType": "uint256",
          "name": "",
          "type": "uint256"
        }
      ],
      "stateMutability": "view",
      "type": "function",
      "constant": true
    },
    {
      "inputs": [
        {
          "internalType": "uint256",
          "name": "_value",
          "type": "uint256"
        }
      ],
      "name": "BorrowTokens",
      "outputs": [
        {
          "internalType": "bool",
          "name": "success",
          "type": "bool"
        }
      ],
      "stateMutability": "payable",
      "type": "function",
      "payable": true
    },
    {
      "inputs": [],
      "name": "ReturnBorrowedETH",
      "outputs": [
        {
          "internalType": "bool",
          "name": "success",
          "type": "bool"
        }
      ],
      "stateMutability": "nonpayable",
      "type": "function"
    },
    {
      "inputs": [],
      "name": "ReturnBorrowedTokens",
      "outputs": [
        {
          "internalType": "bool",
          "name": "success",
          "type": "bool"
        }
      ],
      "stateMutability": "nonpayable",
      "type": "function"
    },
    {
      "inputs": [],
      "name": "ContractETHBalance",
      "outputs": [
        {
          "internalType": "uint256",
          "name": "",
          "type": "uint256"
        }
      ],
      "stateMutability": "view",
      "type": "function",
      "constant": true
    },
    {
      "inputs": [],
      "name": "ContractTokens",
      "outputs": [
        {
          "internalType": "uint256",
          "name": "",
          "type": "uint256"
        }
      ],
      "stateMutability": "view",
      "type": "function",
      "constant": true
    },
    {
      "inputs": [
        {
          "internalType": "address",
          "name": "_to",
          "type": "address"
        },
        {
          "internalType": "uint256",
          "name": "_value",
          "type": "uint256"
        }
      ],
      "name": "TransferTokens",
      "outputs": [
        {
          "internalType": "bool",
          "name": "success",
          "type": "bool"
        }
      ],
      "stateMutability": "nonpayable",
      "type": "function"
    },
    {
      "inputs": [],
      "name": "ValueETHBorrowed",
      "outputs": [
        {
          "internalType": "uint256",
          "name": "",
          "type": "uint256"
        }
      ],
      "stateMutability": "view",
      "type": "function",
      "constant": true
    },
    {
      "inputs": [],
      "name": "ValueTokensBorrowed",
      "outputs": [
        {
          "internalType": "uint256",
          "name": "",
          "type": "uint256"
        }
      ],
      "stateMutability": "view",
      "type": "function",
      "constant": true
    },
    {
      "inputs": [],
      "name": "isETHBorrowed",
      "outputs": [
        {
          "internalType": "bool",
          "name": "",
          "type": "bool"
        }
      ],
      "stateMutability": "view",
      "type": "function",
      "constant": true
    },
    {
      "inputs": [],
      "name": "isTokenBorrowed",
      "outputs": [
        {
          "internalType": "bool",
          "name": "",
          "type": "bool"
        }
      ],
      "stateMutability": "view",
      "type": "function",
      "constant": true
    },
    {
      "inputs": [],
      "name": "ReturnTimesETHBorrowed",
      "outputs": [
        {
          "internalType": "uint256",
          "name": "",
          "type": "uint256"
        }
      ],
      "stateMutability": "view",
      "type": "function",
      "constant": true
    },
    {
      "inputs": [],
      "name": "ReturnTimesTokensBorrowed",
      "outputs": [
        {
          "internalType": "uint256",
          "name": "",
          "type": "uint256"
        }
      ],
      "stateMutability": "view",
      "type": "function",
      "constant": true
    },
    {
      "inputs": [],
      "name": "ReturnOwner",
      "outputs": [
        {
          "internalType": "address",
          "name": "",
          "type": "address"
        }
      ],
      "stateMutability": "view",
      "type": "function",
      "constant": true
    }
  ],
  "bytecode": "0x60806040526101f46004553480156200001757600080fd5b5060405162002a6838038062002a6883398181016040528101906200003d91906200012f565b806000806101000a81548173ffffffffffffffffffffffffffffffffffffffff021916908373ffffffffffffffffffffffffffffffffffffffff16021790555033600160006101000a81548173ffffffffffffffffffffffffffffffffffffffff021916908373ffffffffffffffffffffffffffffffffffffffff1602179055505062000161565b600080fd5b600073ffffffffffffffffffffffffffffffffffffffff82169050919050565b6000620000f782620000ca565b9050919050565b6200010981620000ea565b81146200011557600080fd5b50565b6000815190506200012981620000fe565b92915050565b600060208284031215620001485762000147620000c5565b5b6000620001588482850162000118565b91505092915050565b6128f780620001716000396000f3fe6080604052600436106101145760003560e01c80638975d93a116100a0578063c81bc3ae11610064578063c81bc3ae1461038f578063d0051b0a146103ba578063e64ee9a2146103e5578063e9dadb5b14610410578063fe4340361461043b57610114565b80638975d93a146102b85780638be9ab03146102e3578063a9bfe5c71461030e578063b90da16f14610339578063b91ad9761461036457610114565b80636465e850116100e75780636465e850146101d75780636709bb07146101f5578063760b97ec146102205780637b031c931461024b5780637cbfb8a51461027b57610114565b80630efeb1611461011957806322a12b3e1461014457806352b3e3e41461016f57806353c0411c146101ac575b600080fd5b34801561012557600080fd5b5061012e610466565b60405161013b9190611e98565b60405180910390f35b34801561015057600080fd5b506101596104ba565b6040516101669190611e98565b60405180910390f35b34801561017b57600080fd5b5061019660048036038101906101919190611eee565b6109f3565b6040516101a39190611e98565b60405180910390f35b3480156101b857600080fd5b506101c1610f5d565b6040516101ce9190611f2a565b60405180910390f35b6101df610fff565b6040516101ec9190611e98565b60405180910390f35b34801561020157600080fd5b5061020a611023565b6040516102179190611f2a565b60405180910390f35b34801561022c57600080fd5b5061023561106a565b6040516102429190611f2a565b60405180910390f35b61026560048036038101906102609190611eee565b6110a2565b6040516102729190611e98565b60405180910390f35b34801561028757600080fd5b506102a2600480360381019061029d9190611fa3565b61164a565b6040516102af9190611e98565b60405180910390f35b3480156102c457600080fd5b506102cd6117c0565b6040516102da9190611e98565b60405180910390f35b3480156102ef57600080fd5b506102f8611b99565b6040516103059190611f2a565b60405180910390f35b34801561031a57600080fd5b50610323611ba3565b6040516103309190611f2a565b60405180910390f35b34801561034557600080fd5b5061034e611c45565b60405161035b9190611f2a565b60405180910390f35b34801561037057600080fd5b50610379611c4d565b6040516103869190611f2a565b60405180910390f35b34801561039b57600080fd5b506103a4611d07565b6040516103b19190611f2a565b60405180910390f35b3480156103c657600080fd5b506103cf611d26565b6040516103dc9190611f2a565b60405180910390f35b3480156103f157600080fd5b506103fa611d6d565b6040516104079190611f2a565b60405180910390f35b34801561041c57600080fd5b50610425611d77565b6040516104329190611e98565b60405180910390f35b34801561044757600080fd5b50610450611dcb565b60405161045d9190611ff2565b60405180910390f35b6000600960003373ffffffffffffffffffffffffffffffffffffffff1673ffffffffffffffffffffffffffffffffffffffff16815260200190815260200160002060009054906101000a900460ff16905090565b6000600760003373ffffffffffffffffffffffffffffffffffffffff1673ffffffffffffffffffffffffffffffffffffffff1681526020019081526020016000205460008054906101000a900473ffffffffffffffffffffffffffffffffffffffff1673ffffffffffffffffffffffffffffffffffffffff16632e4d59c4336040518263ffffffff1660e01b81526004016105559190611ff2565b602060405180830381865afa158015610572573d6000803e3d6000fd5b505050506040513d601f19601f820116820180604052508101906105969190612022565b10156105d7576040517f08c379a00000000000000000000000000000000000000000000000000000000081526004016105ce906120ac565b60405180910390fd5b60011515600960003373ffffffffffffffffffffffffffffffffffffffff1673ffffffffffffffffffffffffffffffffffffffff16815260200190815260200160002060009054906101000a900460ff1615151461066a576040517f08c379a00000000000000000000000000000000000000000000000000000000081526004016106619061213e565b60405180910390fd5b60008054906101000a900473ffffffffffffffffffffffffffffffffffffffff1673ffffffffffffffffffffffffffffffffffffffff1663cc16f5db33600760003373ffffffffffffffffffffffffffffffffffffffff1673ffffffffffffffffffffffffffffffffffffffff168152602001908152602001600020546040518363ffffffff1660e01b815260040161070492919061215e565b6020604051808303816000875af1158015610723573d6000803e3d6000fd5b505050506040513d601f19601f8201168201806040525081019061074791906121b3565b5060008054906101000a900473ffffffffffffffffffffffffffffffffffffffff1673ffffffffffffffffffffffffffffffffffffffff16630f6798a530600760003373ffffffffffffffffffffffffffffffffffffffff1673ffffffffffffffffffffffffffffffffffffffff168152602001908152602001600020546040518363ffffffff1660e01b81526004016107e292919061215e565b6020604051808303816000875af1158015610801573d6000803e3d6000fd5b505050506040513d601f19601f8201168201806040525081019061082591906121b3565b503373ffffffffffffffffffffffffffffffffffffffff166108fc610894600454600760003373ffffffffffffffffffffffffffffffffffffffff1673ffffffffffffffffffffffffffffffffffffffff16815260200190815260200160002054611df590919063ffffffff16565b9081150290604051600060405180830381858888f193505050501580156108bf573d6000803e3d6000fd5b506000600760003373ffffffffffffffffffffffffffffffffffffffff1673ffffffffffffffffffffffffffffffffffffffff168152602001908152602001600020819055506000600960003373ffffffffffffffffffffffffffffffffffffffff1673ffffffffffffffffffffffffffffffffffffffff16815260200190815260200160002060006101000a81548160ff0219169083151502179055503373ffffffffffffffffffffffffffffffffffffffff167fa24abeede314d65dc389777bdaa304b2e0e4fd912582aaa76acb9bcedeed9e5a600760003373ffffffffffffffffffffffffffffffffffffffff1673ffffffffffffffffffffffffffffffffffffffff16815260200190815260200160002054426040516109e49291906121e0565b60405180910390a26001905090565b600080610aa460045460008054906101000a900473ffffffffffffffffffffffffffffffffffffffff1673ffffffffffffffffffffffffffffffffffffffff16632e4d59c4336040518263ffffffff1660e01b8152600401610a559190611ff2565b602060405180830381865afa158015610a72573d6000803e3d6000fd5b505050506040513d601f19601f82011682018060405250810190610a969190612022565b611df590919063ffffffff16565b905060001515600860003373ffffffffffffffffffffffffffffffffffffffff1673ffffffffffffffffffffffffffffffffffffffff16815260200190815260200160002060009054906101000a900460ff16151514610b39576040517f08c379a0000000000000000000000000000000000000000000000000000000008152600401610b3090612255565b60405180910390fd5b6000831415610b7d576040517f08c379a0000000000000000000000000000000000000000000000000000000008152600401610b74906122c1565b60405180910390fd5b60001515600960003373ffffffffffffffffffffffffffffffffffffffff1673ffffffffffffffffffffffffffffffffffffffff16815260200190815260200160002060009054906101000a900460ff16151514610c10576040517f08c379a0000000000000000000000000000000000000000000000000000000008152600401610c079061232d565b60405180910390fd5b82811015610c53576040517f08c379a0000000000000000000000000000000000000000000000000000000008152600401610c4a90612399565b60405180910390fd5b824711610c95576040517f08c379a0000000000000000000000000000000000000000000000000000000008152600401610c8c90612405565b60405180910390fd5b610ce783600660003373ffffffffffffffffffffffffffffffffffffffff1673ffffffffffffffffffffffffffffffffffffffff16815260200190815260200160002054611e1090919063ffffffff16565b600660003373ffffffffffffffffffffffffffffffffffffffff1673ffffffffffffffffffffffffffffffffffffffff1681526020019081526020016000208190555060008054906101000a900473ffffffffffffffffffffffffffffffffffffffff1673ffffffffffffffffffffffffffffffffffffffff1663cc16f5db33610d7c60045487611e3c90919063ffffffff16565b6040518363ffffffff1660e01b8152600401610d9992919061215e565b6020604051808303816000875af1158015610db8573d6000803e3d6000fd5b505050506040513d601f19601f82011682018060405250810190610ddc91906121b3565b503373ffffffffffffffffffffffffffffffffffffffff166108fc610e12670de0b6b3a764000086611e3c90919063ffffffff16565b9081150290604051600060405180830381858888f19350505050158015610e3d573d6000803e3d6000fd5b50600a60003373ffffffffffffffffffffffffffffffffffffffff1673ffffffffffffffffffffffffffffffffffffffff1681526020019081526020016000206000815480929190610e8e90612454565b91905055503373ffffffffffffffffffffffffffffffffffffffff167f725633d0b5d703e6d4825588d53bfeeb2959cd28d8112be5d38a3b27b4a857498442604051610edb9291906121e0565b60405180910390a26001600860003373ffffffffffffffffffffffffffffffffffffffff1673ffffffffffffffffffffffffffffffffffffffff16815260200190815260200160002060006101000a81548160ff02191690831515021790555060026000815480929190610f4e90612454565b91905055506001915050919050565b60008060009054906101000a900473ffffffffffffffffffffffffffffffffffffffff1673ffffffffffffffffffffffffffffffffffffffff16632e4d59c4306040518263ffffffff1660e01b8152600401610fb99190611ff2565b602060405180830381865afa158015610fd6573d6000803e3d6000fd5b505050506040513d601f19601f82011682018060405250810190610ffa9190612022565b905090565b600061101634600554611e1090919063ffffffff16565b6005819055506001905090565b6000600660003373ffffffffffffffffffffffffffffffffffffffff1673ffffffffffffffffffffffffffffffffffffffff16815260200190815260200160002054905090565b6000806110996004543373ffffffffffffffffffffffffffffffffffffffff1631611e3c90919063ffffffff16565b90508091505090565b6000806110d16004543373ffffffffffffffffffffffffffffffffffffffff1631611e3c90919063ffffffff16565b90506110e860045484611df590919063ffffffff16565b3414611129576040517f08c379a0000000000000000000000000000000000000000000000000000000008152600401611120906124e9565b60405180910390fd5b600083141561116d576040517f08c379a0000000000000000000000000000000000000000000000000000000008152600401611164906122c1565b60405180910390fd5b60003414156111b1576040517f08c379a00000000000000000000000000000000000000000000000000000000081526004016111a8906122c1565b60405180910390fd5b60001515600860003373ffffffffffffffffffffffffffffffffffffffff1673ffffffffffffffffffffffffffffffffffffffff16815260200190815260200160002060009054906101000a900460ff16151514611244576040517f08c379a000000000000000000000000000000000000000000000000000000000815260040161123b90612255565b60405180910390fd5b60001515600960003373ffffffffffffffffffffffffffffffffffffffff1673ffffffffffffffffffffffffffffffffffffffff16815260200190815260200160002060009054906101000a900460ff161515146112d7576040517f08c379a00000000000000000000000000000000000000000000000000000000081526004016112ce9061232d565b60405180910390fd5b8281101561131a576040517f08c379a000000000000000000000000000000000000000000000000000000000815260040161131190612555565b60405180910390fd5b8260008054906101000a900473ffffffffffffffffffffffffffffffffffffffff1673ffffffffffffffffffffffffffffffffffffffff16632e4d59c4306040518263ffffffff1660e01b81526004016113749190611ff2565b602060405180830381865afa158015611391573d6000803e3d6000fd5b505050506040513d601f19601f820116820180604052508101906113b59190612022565b116113f5576040517f08c379a00000000000000000000000000000000000000000000000000000000081526004016113ec906125c1565b60405180910390fd5b61144783600760003373ffffffffffffffffffffffffffffffffffffffff1673ffffffffffffffffffffffffffffffffffffffff16815260200190815260200160002054611e1090919063ffffffff16565b600760003373ffffffffffffffffffffffffffffffffffffffff1673ffffffffffffffffffffffffffffffffffffffff1681526020019081526020016000208190555060008054906101000a900473ffffffffffffffffffffffffffffffffffffffff1673ffffffffffffffffffffffffffffffffffffffff1663c0d84ce53033866040518463ffffffff1660e01b81526004016114e7939291906125e1565b6020604051808303816000875af1158015611506573d6000803e3d6000fd5b505050506040513d601f19601f8201168201806040525081019061152a91906121b3565b50600b60003373ffffffffffffffffffffffffffffffffffffffff1673ffffffffffffffffffffffffffffffffffffffff168152602001908152602001600020600081548092919061157b90612454565b91905055503373ffffffffffffffffffffffffffffffffffffffff167f356aa93a46a63ef8d7bf75ee78a8d0b2fd3b5fe95db94115411bdcedaf8b17bf84426040516115c89291906121e0565b60405180910390a2600360008154809291906115e390612454565b91905055506001600960003373ffffffffffffffffffffffffffffffffffffffff1673ffffffffffffffffffffffffffffffffffffffff16815260200190815260200160002060006101000a81548160ff0219169083151502179055506001915050919050565b6000600160009054906101000a900473ffffffffffffffffffffffffffffffffffffffff1673ffffffffffffffffffffffffffffffffffffffff163373ffffffffffffffffffffffffffffffffffffffff16146116dc576040517f08c379a00000000000000000000000000000000000000000000000000000000081526004016116d390612664565b60405180910390fd5b60008054906101000a900473ffffffffffffffffffffffffffffffffffffffff1673ffffffffffffffffffffffffffffffffffffffff1663c0d84ce53085856040518463ffffffff1660e01b8152600401611739939291906125e1565b6020604051808303816000875af1158015611758573d6000803e3d6000fd5b505050506040513d601f19601f8201168201806040525081019061177c91906121b3565b507ff2811135d5090b5dc3c294c288d73b6d7104ee00ef4b83be2d719b49f32fab8883836040516117ae92919061215e565b60405180910390a16001905092915050565b6000600660003373ffffffffffffffffffffffffffffffffffffffff1673ffffffffffffffffffffffffffffffffffffffff168152602001908152602001600020543373ffffffffffffffffffffffffffffffffffffffff1631101561185b576040517f08c379a0000000000000000000000000000000000000000000000000000000008152600401611852906126d0565b60405180910390fd5b60011515600860003373ffffffffffffffffffffffffffffffffffffffff1673ffffffffffffffffffffffffffffffffffffffff16815260200190815260200160002060009054906101000a900460ff161515146118ee576040517f08c379a00000000000000000000000000000000000000000000000000000000081526004016118e590612762565b60405180910390fd5b3073ffffffffffffffffffffffffffffffffffffffff166108fc600660003373ffffffffffffffffffffffffffffffffffffffff1673ffffffffffffffffffffffffffffffffffffffff168152602001908152602001600020549081150290604051600060405180830381858888f19350505050158015611973573d6000803e3d6000fd5b5060008054906101000a900473ffffffffffffffffffffffffffffffffffffffff1673ffffffffffffffffffffffffffffffffffffffff16630f6798a533611a05600454600660003373ffffffffffffffffffffffffffffffffffffffff1673ffffffffffffffffffffffffffffffffffffffff16815260200190815260200160002054611e3c90919063ffffffff16565b6040518363ffffffff1660e01b8152600401611a2292919061215e565b6020604051808303816000875af1158015611a41573d6000803e3d6000fd5b505050506040513d601f19601f82011682018060405250810190611a6591906121b3565b506000600660003373ffffffffffffffffffffffffffffffffffffffff1673ffffffffffffffffffffffffffffffffffffffff168152602001908152602001600020819055506000600860003373ffffffffffffffffffffffffffffffffffffffff1673ffffffffffffffffffffffffffffffffffffffff16815260200190815260200160002060006101000a81548160ff0219169083151502179055503373ffffffffffffffffffffffffffffffffffffffff167f2d02c2a90c2bee28c714768f2fde85ec75b3197fc1ba81d9802f1ea105a90383600660003373ffffffffffffffffffffffffffffffffffffffff1673ffffffffffffffffffffffffffffffffffffffff1681526020019081526020016000205442604051611b8a9291906121e0565b60405180910390a26001905090565b6000600254905090565b60008060009054906101000a900473ffffffffffffffffffffffffffffffffffffffff1673ffffffffffffffffffffffffffffffffffffffff16632e4d59c4336040518263ffffffff1660e01b8152600401611bff9190611ff2565b602060405180830381865afa158015611c1c573d6000803e3d6000fd5b505050506040513d601f19601f82011682018060405250810190611c409190612022565b905090565b600047905090565b600080611cfe60045460008054906101000a900473ffffffffffffffffffffffffffffffffffffffff1673ffffffffffffffffffffffffffffffffffffffff16632e4d59c4336040518263ffffffff1660e01b8152600401611caf9190611ff2565b602060405180830381865afa158015611ccc573d6000803e3d6000fd5b505050506040513d601f19601f82011682018060405250810190611cf09190612022565b611df590919063ffffffff16565b90508091505090565b60003373ffffffffffffffffffffffffffffffffffffffff1631905090565b6000600760003373ffffffffffffffffffffffffffffffffffffffff1673ffffffffffffffffffffffffffffffffffffffff16815260200190815260200160002054905090565b6000600354905090565b6000600860003373ffffffffffffffffffffffffffffffffffffffff1673ffffffffffffffffffffffffffffffffffffffff16815260200190815260200160002060009054906101000a900460ff16905090565b6000600160009054906101000a900473ffffffffffffffffffffffffffffffffffffffff16905090565b6000808284611e0491906127b1565b90508091505092915050565b6000808284611e1f91906127e2565b905083811015611e3257611e31612838565b5b8091505092915050565b6000808284611e4b9190612867565b90506000841480611e665750828482611e6491906127b1565b145b611e7357611e72612838565b5b8091505092915050565b60008115159050919050565b611e9281611e7d565b82525050565b6000602082019050611ead6000830184611e89565b92915050565b600080fd5b6000819050919050565b611ecb81611eb8565b8114611ed657600080fd5b50565b600081359050611ee881611ec2565b92915050565b600060208284031215611f0457611f03611eb3565b5b6000611f1284828501611ed9565b91505092915050565b611f2481611eb8565b82525050565b6000602082019050611f3f6000830184611f1b565b92915050565b600073ffffffffffffffffffffffffffffffffffffffff82169050919050565b6000611f7082611f45565b9050919050565b611f8081611f65565b8114611f8b57600080fd5b50565b600081359050611f9d81611f77565b92915050565b60008060408385031215611fba57611fb9611eb3565b5b6000611fc885828601611f8e565b9250506020611fd985828601611ed9565b9150509250929050565b611fec81611f65565b82525050565b60006020820190506120076000830184611fe3565b92915050565b60008151905061201c81611ec2565b92915050565b60006020828403121561203857612037611eb3565b5b60006120468482850161200d565b91505092915050565b600082825260208201905092915050565b7f496e73756666696369656e7420546f6b656e2042616c616e6365000000000000600082015250565b6000612096601a8361204f565b91506120a182612060565b602082019050919050565b600060208201905081810360008301526120c581612089565b9050919050565b7f426f72726f7720546f6b656e73206265666f726520796f752063616e2052657460008201527f75726e2069740000000000000000000000000000000000000000000000000000602082015250565b600061212860268361204f565b9150612133826120cc565b604082019050919050565b600060208201905081810360008301526121578161211b565b9050919050565b60006040820190506121736000830185611fe3565b6121806020830184611f1b565b9392505050565b61219081611e7d565b811461219b57600080fd5b50565b6000815190506121ad81612187565b92915050565b6000602082840312156121c9576121c8611eb3565b5b60006121d78482850161219e565b91505092915050565b60006040820190506121f56000830185611f1b565b6122026020830184611f1b565b9392505050565b7f52657475726e20426f72726f7765642045544800000000000000000000000000600082015250565b600061223f60138361204f565b915061224a82612209565b602082019050919050565b6000602082019050818103600083015261226e81612232565b9050919050565b7f4e69636520547279000000000000000000000000000000000000000000000000600082015250565b60006122ab60088361204f565b91506122b682612275565b602082019050919050565b600060208201905081810360008301526122da8161229e565b9050919050565b7f52657475726e20426f72726f77656420546f6b656e7300000000000000000000600082015250565b600061231760168361204f565b9150612322826122e1565b602082019050919050565b600060208201905081810360008301526123468161230a565b9050919050565b7f496e73756666696369656e7420546f6b656e7320427579204d6f726500000000600082015250565b6000612383601c8361204f565b915061238e8261234d565b602082019050919050565b600060208201905081810360008301526123b281612376565b9050919050565b7f496e73756666696369656e742045544820696e20436f6e747261637400000000600082015250565b60006123ef601c8361204f565b91506123fa826123b9565b602082019050919050565b6000602082019050818103600083015261241e816123e2565b9050919050565b7f4e487b7100000000000000000000000000000000000000000000000000000000600052601160045260246000fd5b600061245f82611eb8565b91507fffffffffffffffffffffffffffffffffffffffffffffffffffffffffffffffff82141561249257612491612425565b5b600182019050919050565b7f53656e642074686520726571756972656420416d6f756e740000000000000000600082015250565b60006124d360188361204f565b91506124de8261249d565b602082019050919050565b60006020820190508181036000830152612502816124c6565b9050919050565b7f496e73756666696369656e742045544820427579204d6f726500000000000000600082015250565b600061253f60198361204f565b915061254a82612509565b602082019050919050565b6000602082019050818103600083015261256e81612532565b9050919050565b7f496e73756666696369656e7420546f6b656e7320696e20436f6e747261637400600082015250565b60006125ab601f8361204f565b91506125b682612575565b602082019050919050565b600060208201905081810360008301526125da8161259e565b9050919050565b60006060820190506125f66000830186611fe3565b6126036020830185611fe3565b6126106040830184611f1b565b949350505050565b7f596f7520617265206e6f7420746865206f776e65720000000000000000000000600082015250565b600061264e60158361204f565b915061265982612618565b602082019050919050565b6000602082019050818103600083015261267d81612641565b9050919050565b7f496e73756666696369656e74204554482042616c616e63650000000000000000600082015250565b60006126ba60188361204f565b91506126c582612684565b602082019050919050565b600060208201905081810360008301526126e9816126ad565b9050919050565b7f426f72726f7720455448206265666f726520796f752063616e2052657475726e60008201527f2069740000000000000000000000000000000000000000000000000000000000602082015250565b600061274c60238361204f565b9150612757826126f0565b604082019050919050565b6000602082019050818103600083015261277b8161273f565b9050919050565b7f4e487b7100000000000000000000000000000000000000000000000000000000600052601260045260246000fd5b60006127bc82611eb8565b91506127c783611eb8565b9250826127d7576127d6612782565b5b828204905092915050565b60006127ed82611eb8565b91506127f883611eb8565b9250827fffffffffffffffffffffffffffffffffffffffffffffffffffffffffffffffff0382111561282d5761282c612425565b5b828201905092915050565b7f4e487b7100000000000000000000000000000000000000000000000000000000600052600160045260246000fd5b600061287282611eb8565b915061287d83611eb8565b9250817fffffffffffffffffffffffffffffffffffffffffffffffffffffffffffffffff04831182151516156128b6576128b5612425565b5b82820290509291505056fea2646970667358221220ade8e117ffaf8f6df49dfeae25d5b1eb3c76530ee30520bdca1e5f7dc5a5cdaf64736f6c634300080b0033",
  "immutableReferences": {},
  "source": "pragma solidity ^0.8.11;\r\nimport \"./OGGToken.sol\";\r\ncontract BorrowandUse{\r\n\r\n    OGG myogg;\r\n    using SafeMath for uint;\r\n    address private owner;\r\n    uint private ETHcount;\r\n    uint private Tokenscount;\r\n    uint private rate = 500;\r\n    uint private BalanceRecieved;\r\n    \r\n\r\n    mapping(address => uint)ETHBorrowed;\r\n    mapping(address => uint)TokensBorrowed;\r\n    mapping(address => bool)BorrowedETH;\r\n    mapping(address => bool)BorrowedTokens;\r\n    mapping(address => uint)TimesBorrowedETH;\r\n    mapping(address => uint)TimesBorrowedTokens;\r\n    \r\n    event BorrowEth(address indexed _by,uint _amount,uint _time);\r\n    event BorrowToken(address indexed _by,uint _amount,uint _time);\r\n    event ReturnBorrowEth(address indexed _by,uint _amount,uint _time);\r\n    event ReturnBorrowToken(address indexed _by,uint _amount,uint _time);\r\n    event AuthorizedTransfer(address _to,uint _value);\r\n\r\n    modifier OnlyOwner(){\r\n        require(msg.sender == owner,\"You are not the owner\");\r\n        _;\r\n    }\r\n    constructor(address tokenAddress){\r\n        myogg = OGG(tokenAddress);\r\n        owner = msg.sender;\r\n    }\r\n\r\n    function ETHBalanceChecker()public view returns(uint){\r\n        return (msg.sender).balance;\r\n    }\r\n\r\n    function TokenBalance()public view returns(uint){\r\n        return myogg.CheckBalance(msg.sender);\r\n    }\r\n\r\n    function RecieveETH()public payable returns(bool success){\r\n    BalanceRecieved = BalanceRecieved.add(msg.value);\r\n    return true;\r\n    }\r\n\r\n    function BorrowETH(uint _value)public returns(bool success){\r\n    uint TokentoEth = myogg.CheckBalance(msg.sender).div(rate);\r\n     require(BorrowedETH[msg.sender] == false,\"Return Borrowed ETH\");\r\n     require(_value != 0,\"Nice Try\");\r\n     require(BorrowedTokens[msg.sender] == false,\"Return Borrowed Tokens\");\r\n     require(TokentoEth >= _value,\"Insufficient Tokens Buy More\");\r\n     require(address(this).balance > _value,\"Insufficient ETH in Contract\");\r\n     ETHBorrowed[msg.sender] = ETHBorrowed[msg.sender].add(_value);\r\n     myogg.Burn(msg.sender, _value.mul(rate));\r\n     payable(msg.sender).transfer(_value.mul(1 ether));\r\n     TimesBorrowedETH[msg.sender]++;\r\n     emit BorrowEth(msg.sender,_value,block.timestamp);\r\n     BorrowedETH[msg.sender] = true;\r\n     ETHcount++;\r\n     return true;\r\n    }\r\n    function CheckMaxBorrowTokens()public view returns(uint){\r\n        uint EthtoToken = ((msg.sender).balance).mul(rate);\r\n        return EthtoToken;\r\n    }\r\n\r\n    function CheckMaxBorrowETH()public view returns(uint){\r\n        uint TokentoEth = myogg.CheckBalance(msg.sender).div(rate);\r\n        return TokentoEth;\r\n    }\r\n\r\n    function BorrowTokens(uint _value)public payable returns(bool success){\r\n    uint EthtoToken = ((msg.sender).balance).mul(rate);\r\n    require(msg.value == (_value).div(rate),\"Send the required Amount\");\r\n    require(_value != 0,\"Nice Try\");\r\n    require(msg.value != 0,\"Nice Try\");\r\n    require(BorrowedETH[msg.sender] == false,\"Return Borrowed ETH\");\r\n    require(BorrowedTokens[msg.sender] == false,\"Return Borrowed Tokens\");\r\n    require(EthtoToken >= _value,\"Insufficient ETH Buy More\");\r\n    require(myogg.CheckBalance(address(this)) > _value,\"Insufficient Tokens in Contract\");\r\n    TokensBorrowed[msg.sender] = TokensBorrowed[msg.sender].add(_value);\r\n    myogg.TransferFrom(address(this),msg.sender, _value);\r\n    TimesBorrowedTokens[msg.sender]++;\r\n    emit BorrowToken(msg.sender, _value,block.timestamp);\r\n    Tokenscount++;\r\n    BorrowedTokens[msg.sender] = true;\r\n    return true;   \r\n    }\r\n\r\n    function ReturnBorrowedETH()public returns(bool success){\r\n        require((msg.sender).balance >= ETHBorrowed[msg.sender],\"Insufficient ETH Balance\");\r\n        require(BorrowedETH[msg.sender] == true,\"Borrow ETH before you can Return it\");\r\n        payable(address(this)).transfer(ETHBorrowed[msg.sender]);\r\n        myogg.Mint(msg.sender,ETHBorrowed[msg.sender].mul(rate));\r\n        ETHBorrowed[msg.sender] = 0;\r\n        BorrowedETH[msg.sender] = false;\r\n        emit ReturnBorrowEth(msg.sender,ETHBorrowed[msg.sender],block.timestamp);\r\n        return true;\r\n    }\r\n       function ReturnBorrowedTokens()public returns(bool success){\r\n       require(myogg.CheckBalance(msg.sender) >= TokensBorrowed[msg.sender],\"Insufficient Token Balance\");\r\n        require(BorrowedTokens[msg.sender] == true,\"Borrow Tokens before you can Return it\");\r\n        myogg.Burn(msg.sender,TokensBorrowed[msg.sender]);\r\n        myogg.Mint(address(this),TokensBorrowed[msg.sender]);\r\n        payable(msg.sender).transfer(TokensBorrowed[msg.sender].div(rate));\r\n        TokensBorrowed[msg.sender] = 0;\r\n        BorrowedTokens[msg.sender] = false;\r\n        emit ReturnBorrowToken(msg.sender,TokensBorrowed[msg.sender],block.timestamp);\r\n        return true;\r\n    }\r\n\r\n    function ContractETHBalance()public view returns(uint){\r\n        return address(this).balance;\r\n    }\r\n\r\n    function ContractTokens()public view returns(uint){\r\n      return myogg.CheckBalance(address(this));\r\n    }\r\n\r\n    function TransferTokens(address _to,uint _value)public OnlyOwner returns(bool success){\r\n       myogg.TransferFrom(address(this),_to, _value);\r\n        emit AuthorizedTransfer(_to, _value);\r\n        return true;\r\n    }\r\n\r\n    function ValueETHBorrowed()public view returns(uint){\r\n        return ETHBorrowed[msg.sender];\r\n    }\r\n\r\n     function ValueTokensBorrowed()public view returns(uint){\r\n        return TokensBorrowed[msg.sender];\r\n    }\r\n\r\n    function isETHBorrowed()public view returns(bool){\r\n        return BorrowedETH[msg.sender];\r\n    }\r\n      function isTokenBorrowed()public view returns(bool){\r\n        return BorrowedTokens[msg.sender];\r\n    }\r\n\r\n    function ReturnTimesETHBorrowed()public view returns(uint){\r\n        return ETHcount;\r\n    }\r\n    function ReturnTimesTokensBorrowed()public view returns(uint){\r\n        return Tokenscount;\r\n    }\r\n    function ReturnOwner()public view returns(address){\r\n        return owner;\r\n    }\r\n\r\n    \r\n}",
  "sourcePath": "C:\\Users\\MAYOWA\\Desktop\\BorrowUse\\contracts\\BorrowandUse.sol",
  "compiler": {
    "name": "solc",
    "version": "0.8.11+commit.d7f03943.Emscripten.clang"
  },
  "schemaVersion": "3.4.5",
  "updatedAt": "2022-07-14T17:08:07.528Z",
  "networkType": "ethereum",
  "devdoc": {
    "kind": "dev",
    "methods": {},
    "version": 1
  },
  "userdoc": {
    "kind": "user",
    "methods": {},
    "version": 1
  }
}